{
  "_format": "hh-sol-artifact-1",
  "contractName": "ProtocolStates",
  "sourceName": "contracts/ProtocolStates.sol",
  "abi": [
    {
      "inputs": [
        {
          "internalType": "uint256",
          "name": "contractState_",
          "type": "uint256"
        }
      ],
      "stateMutability": "nonpayable",
      "type": "constructor"
    },
    {
      "inputs": [
        {
          "internalType": "enum ProtocolStates.States",
          "name": "_newState",
          "type": "uint8"
        }
      ],
      "name": "changeState",
      "outputs": [],
      "stateMutability": "nonpayable",
      "type": "function"
    },
    {
      "inputs": [],
      "name": "decrementState",
      "outputs": [],
      "stateMutability": "nonpayable",
      "type": "function"
    },
    {
      "inputs": [],
      "name": "getContractState",
      "outputs": [
        {
          "internalType": "string",
          "name": "",
          "type": "string"
        }
      ],
      "stateMutability": "view",
      "type": "function"
    },
    {
      "inputs": [],
      "name": "incrementState",
      "outputs": [],
      "stateMutability": "nonpayable",
      "type": "function"
    },
    {
      "inputs": [],
      "name": "owner",
      "outputs": [
        {
          "internalType": "address",
          "name": "",
          "type": "address"
        }
      ],
      "stateMutability": "view",
      "type": "function"
    }
  ],
  "bytecode": "0x60a060405234801561001057600080fd5b506040516109d03803806109d0833981810160405281019061003291906100e2565b3373ffffffffffffffffffffffffffffffffffffffff1660808173ffffffffffffffffffffffffffffffffffffffff16815250508060048111156100795761007861010f565b5b6000806101000a81548160ff0219169083600481111561009c5761009b61010f565b5b02179055505061013e565b600080fd5b6000819050919050565b6100bf816100ac565b81146100ca57600080fd5b50565b6000815190506100dc816100b6565b92915050565b6000602082840312156100f8576100f76100a7565b5b6000610106848285016100cd565b91505092915050565b7f4e487b7100000000000000000000000000000000000000000000000000000000600052602160045260246000fd5b60805161086361016d6000396000818160ca0152818161037e015281816103a2015261049801526108636000f3fe608060405234801561001057600080fd5b50600436106100575760003560e01c8063268f11531461005c5780637f4e4849146100785780638da5cb5b14610096578063ab2b8a44146100b4578063ee72b06d146100be575b600080fd5b610076600480360381019061007191906105b6565b6100c8565b005b610080610182565b60405161008d9190610673565b60405180910390f35b61009e61037c565b6040516100ab91906106d6565b60405180910390f35b6100bc6103a0565b005b6100c6610496565b005b7f000000000000000000000000000000000000000000000000000000000000000073ffffffffffffffffffffffffffffffffffffffff163373ffffffffffffffffffffffffffffffffffffffff1614610156576040517f08c379a000000000000000000000000000000000000000000000000000000000815260040161014d9061073d565b60405180910390fd5b806000806101000a81548160ff0219169083600481111561017a5761017961075d565b5b021790555050565b606060008060009054906101000a900460ff169050600060048111156101ab576101aa61075d565b5b8160048111156101be576101bd61075d565b5b03610201576040518060400160405280601681526020017f416363657074696e6720426c696e646564204269647300000000000000000000815250915050610379565b600160048111156102155761021461075d565b5b8160048111156102285761022761075d565b5b0361026b576040518060400160405280600b81526020017f52657665616c2042696473000000000000000000000000000000000000000000815250915050610379565b6002600481111561027f5761027e61075d565b5b8160048111156102925761029161075d565b5b036102d5576040518060400160405280600d81526020017f416e6f7468657220537461676500000000000000000000000000000000000000815250915050610379565b600360048111156102e9576102e861075d565b5b8160048111156102fc576102fb61075d565b5b0361033f576040518060400160405280600f81526020017f41726520576520446f6e65205965740000000000000000000000000000000000815250915050610379565b6040518060400160405280600881526020017f46696e69736865640000000000000000000000000000000000000000000000008152509150505b90565b7f000000000000000000000000000000000000000000000000000000000000000081565b7f000000000000000000000000000000000000000000000000000000000000000073ffffffffffffffffffffffffffffffffffffffff163373ffffffffffffffffffffffffffffffffffffffff161461042e576040517f08c379a00000000000000000000000000000000000000000000000000000000081526004016104259061073d565b60405180910390fd5b600160008054906101000a900460ff1660048111156104505761044f61075d565b5b61045a91906107c5565b600481111561046c5761046b61075d565b5b6000806101000a81548160ff0219169083600481111561048f5761048e61075d565b5b0217905550565b7f000000000000000000000000000000000000000000000000000000000000000073ffffffffffffffffffffffffffffffffffffffff163373ffffffffffffffffffffffffffffffffffffffff1614610524576040517f08c379a000000000000000000000000000000000000000000000000000000000815260040161051b9061073d565b60405180910390fd5b600160008054906101000a900460ff1660048111156105465761054561075d565b5b61055091906107f9565b60048111156105625761056161075d565b5b6000806101000a81548160ff021916908360048111156105855761058461075d565b5b0217905550565b600080fd5b6005811061059e57600080fd5b50565b6000813590506105b081610591565b92915050565b6000602082840312156105cc576105cb61058c565b5b60006105da848285016105a1565b91505092915050565b600081519050919050565b600082825260208201905092915050565b60005b8381101561061d578082015181840152602081019050610602565b60008484015250505050565b6000601f19601f8301169050919050565b6000610645826105e3565b61064f81856105ee565b935061065f8185602086016105ff565b61066881610629565b840191505092915050565b6000602082019050818103600083015261068d818461063a565b905092915050565b600073ffffffffffffffffffffffffffffffffffffffff82169050919050565b60006106c082610695565b9050919050565b6106d0816106b5565b82525050565b60006020820190506106eb60008301846106c7565b92915050565b7f4f6e6c79204f776e657200000000000000000000000000000000000000000000600082015250565b6000610727600a836105ee565b9150610732826106f1565b602082019050919050565b600060208201905081810360008301526107568161071a565b9050919050565b7f4e487b7100000000000000000000000000000000000000000000000000000000600052602160045260246000fd5b6000819050919050565b7f4e487b7100000000000000000000000000000000000000000000000000000000600052601160045260246000fd5b60006107d08261078c565b91506107db8361078c565b92508282039050818111156107f3576107f2610796565b5b92915050565b60006108048261078c565b915061080f8361078c565b925082820190508082111561082757610826610796565b5b9291505056fea264697066735822122034e1384538e8197c05833681222e4bf3c9c5eea5f8b4c0c329070e51f100bbf364736f6c63430008130033",
  "linkReferences": {},
  "deployedLinkReferences": {}
}